{"abi":[{"type":"constructor","inputs":[{"name":"subscriptionId","type":"uint256","internalType":"uint256"},{"name":"vrfCoordinator","type":"address","internalType":"address"},{"name":"_keyHash","type":"bytes32","internalType":"bytes32"}],"stateMutability":"nonpayable"},{"type":"function","name":"acceptOwnership","inputs":[],"outputs":[],"stateMutability":"nonpayable"},{"type":"function","name":"campaignDraws","inputs":[{"name":"","type":"uint256","internalType":"uint256"}],"outputs":[{"name":"","type":"uint256","internalType":"uint256"}],"stateMutability":"view"},{"type":"function","name":"draws","inputs":[{"name":"","type":"uint256","internalType":"uint256"}],"outputs":[{"name":"campaignId","type":"uint256","internalType":"uint256"},{"name":"fulfilled","type":"bool","internalType":"bool"}],"stateMutability":"view"},{"type":"function","name":"getWinners","inputs":[{"name":"requestId","type":"uint256","internalType":"uint256"}],"outputs":[{"name":"","type":"address[]","internalType":"address[]"}],"stateMutability":"view"},{"type":"function","name":"owner","inputs":[],"outputs":[{"name":"","type":"address","internalType":"address"}],"stateMutability":"view"},{"type":"function","name":"rawFulfillRandomWords","inputs":[{"name":"requestId","type":"uint256","internalType":"uint256"},{"name":"randomWords","type":"uint256[]","internalType":"uint256[]"}],"outputs":[],"stateMutability":"nonpayable"},{"type":"function","name":"requestDraw","inputs":[{"name":"campaignId","type":"uint256","internalType":"uint256"},{"name":"participants","type":"address[]","internalType":"address[]"},{"name":"ticketCounts","type":"uint256[]","internalType":"uint256[]"}],"outputs":[],"stateMutability":"nonpayable"},{"type":"function","name":"s_vrfCoordinator","inputs":[],"outputs":[{"name":"","type":"address","internalType":"contract IVRFCoordinatorV2Plus"}],"stateMutability":"view"},{"type":"function","name":"setCoordinator","inputs":[{"name":"_vrfCoordinator","type":"address","internalType":"address"}],"outputs":[],"stateMutability":"nonpayable"},{"type":"function","name":"setKeyHash","inputs":[{"name":"_keyHash","type":"bytes32","internalType":"bytes32"}],"outputs":[],"stateMutability":"nonpayable"},{"type":"function","name":"setSubscriptionId","inputs":[{"name":"subscriptionId","type":"uint256","internalType":"uint256"}],"outputs":[],"stateMutability":"nonpayable"},{"type":"function","name":"transferOwnership","inputs":[{"name":"to","type":"address","internalType":"address"}],"outputs":[],"stateMutability":"nonpayable"},{"type":"event","name":"CoordinatorSet","inputs":[{"name":"vrfCoordinator","type":"address","indexed":false,"internalType":"address"}],"anonymous":false},{"type":"event","name":"DrawRequested","inputs":[{"name":"requestId","type":"uint256","indexed":true,"internalType":"uint256"},{"name":"campaignId","type":"uint256","indexed":false,"internalType":"uint256"}],"anonymous":false},{"type":"event","name":"OwnershipTransferRequested","inputs":[{"name":"from","type":"address","indexed":true,"internalType":"address"},{"name":"to","type":"address","indexed":true,"internalType":"address"}],"anonymous":false},{"type":"event","name":"OwnershipTransferred","inputs":[{"name":"from","type":"address","indexed":true,"internalType":"address"},{"name":"to","type":"address","indexed":true,"internalType":"address"}],"anonymous":false},{"type":"event","name":"WinnersSelected","inputs":[{"name":"requestId","type":"uint256","indexed":true,"internalType":"uint256"},{"name":"winners","type":"address[]","indexed":false,"internalType":"address[]"}],"anonymous":false},{"type":"error","name":"OnlyCoordinatorCanFulfill","inputs":[{"name":"have","type":"address","internalType":"address"},{"name":"want","type":"address","internalType":"address"}]},{"type":"error","name":"OnlyOwnerOrCoordinator","inputs":[{"name":"have","type":"address","internalType":"address"},{"name":"owner","type":"address","internalType":"address"},{"name":"coordinator","type":"address","internalType":"address"}]},{"type":"error","name":"ZeroAddress","inputs":[]}],"bytecode":{"object":"0x6080604052622625a060055f6101000a81548163ffffffff021916908363ffffffff1602179055506003600560046101000a81548161ffff021916908361ffff160217905550348015610050575f5ffd5b506040516122fc3803806122fc83398181016040528101906100729190610414565b8133805f5f73ffffffffffffffffffffffffffffffffffffffff168273ffffffffffffffffffffffffffffffffffffffff16036100e4576040517f08c379a00000000000000000000000000000000000000000000000000000000081526004016100db906104be565b60405180910390fd5b815f5f6101000a81548173ffffffffffffffffffffffffffffffffffffffff021916908373ffffffffffffffffffffffffffffffffffffffff1602179055505f73ffffffffffffffffffffffffffffffffffffffff168173ffffffffffffffffffffffffffffffffffffffff1614610166576101658161022560201b60201c565b5b5050505f73ffffffffffffffffffffffffffffffffffffffff168173ffffffffffffffffffffffffffffffffffffffff16036101ce576040517fd92e233d00000000000000000000000000000000000000000000000000000000815260040160405180910390fd5b8060025f6101000a81548173ffffffffffffffffffffffffffffffffffffffff021916908373ffffffffffffffffffffffffffffffffffffffff160217905550508260038190555080600481905550505050610544565b3373ffffffffffffffffffffffffffffffffffffffff168173ffffffffffffffffffffffffffffffffffffffff1603610293576040517f08c379a000000000000000000000000000000000000000000000000000000000815260040161028a90610526565b60405180910390fd5b8060015f6101000a81548173ffffffffffffffffffffffffffffffffffffffff021916908373ffffffffffffffffffffffffffffffffffffffff1602179055508073ffffffffffffffffffffffffffffffffffffffff165f5f9054906101000a900473ffffffffffffffffffffffffffffffffffffffff1673ffffffffffffffffffffffffffffffffffffffff167fed8889f560326eb138920d842192f0eb3dd22b4f139c87a2c57538e05bae127860405160405180910390a350565b5f5ffd5b5f819050919050565b61036681610354565b8114610370575f5ffd5b50565b5f815190506103818161035d565b92915050565b5f73ffffffffffffffffffffffffffffffffffffffff82169050919050565b5f6103b082610387565b9050919050565b6103c0816103a6565b81146103ca575f5ffd5b50565b5f815190506103db816103b7565b92915050565b5f819050919050565b6103f3816103e1565b81146103fd575f5ffd5b50565b5f8151905061040e816103ea565b92915050565b5f5f5f6060848603121561042b5761042a610350565b5b5f61043886828701610373565b9350506020610449868287016103cd565b925050604061045a86828701610400565b9150509250925092565b5f82825260208201905092915050565b7f43616e6e6f7420736574206f776e657220746f207a65726f00000000000000005f82015250565b5f6104a8601883610464565b91506104b382610474565b602082019050919050565b5f6020820190508181035f8301526104d58161049c565b9050919050565b7f43616e6e6f74207472616e7366657220746f2073656c660000000000000000005f82015250565b5f610510601783610464565b915061051b826104dc565b602082019050919050565b5f6020820190508181035f83015261053d81610504565b9050919050565b611dab806105515f395ff3fe608060405234801561000f575f5ffd5b50600436106100b2575f3560e01c80638ea981171161006f5780638ea981171461017757806398544710146101935780639eccacf6146101af578063c1e0d236146101cd578063cc4abd14146101e9578063f2fde38b14610219576100b2565b80630cc36c36146100b65780631fe543e3146100e75780632b5eed43146101035780636b1426a41461011f57806379ba50971461014f5780638da5cb5b14610159575b5f5ffd5b6100d060048036038101906100cb91906110b9565b610235565b6040516100de92919061110d565b60405180910390f35b61010160048036038101906100fc9190611195565b610261565b005b61011d60048036038101906101189190611454565b610325565b005b610139600480360381019061013491906110b9565b61055f565b6040516101469190611593565b60405180910390f35b6101576105fe565b005b61016161078d565b60405161016e91906115c2565b60405180910390f35b610191600480360381019061018c91906115db565b6107b4565b005b6101ad60048036038101906101a89190611639565b610991565b005b6101b76109a3565b6040516101c491906116bf565b60405180910390f35b6101e760048036038101906101e291906110b9565b6109c8565b005b61020360048036038101906101fe91906110b9565b6109da565b60405161021091906116d8565b60405180910390f35b610233600480360381019061022e91906115db565b6109ef565b005b6006602052805f5260405f205f91509050805f015490806004015f9054906101000a900460ff16905082565b60025f9054906101000a900473ffffffffffffffffffffffffffffffffffffffff1673ffffffffffffffffffffffffffffffffffffffff163373ffffffffffffffffffffffffffffffffffffffff1614610315573360025f9054906101000a900473ffffffffffffffffffffffffffffffffffffffff166040517f1cf993f400000000000000000000000000000000000000000000000000000000815260040161030c9291906116f1565b60405180910390fd5b610320838383610a03565b505050565b5f6040518060c0016040528060045481526020016003548152602001600560049054906101000a900461ffff1661ffff16815260200160055f9054906101000a900463ffffffff1663ffffffff168152602001600363ffffffff16815260200161039e60405180602001604052805f1515815250610b7e565b81525090505f60025f9054906101000a900473ffffffffffffffffffffffffffffffffffffffff1673ffffffffffffffffffffffffffffffffffffffff16639b1c385e836040518263ffffffff1660e01b81526004016103fe9190611856565b6020604051808303815f875af115801561041a573d5f5f3e3d5ffd5b505050506040513d601f19601f8201168201806040525081019061043e919061188a565b90505f60065f8381526020019081526020015f20905085815f018190555084816001019080519060200190610474929190610fd3565b505f5f90505b855181101561050857848181518110610496576104956118b5565b5b6020026020010151826002015f8884815181106104b6576104b56118b5565b5b602002602001015173ffffffffffffffffffffffffffffffffffffffff1673ffffffffffffffffffffffffffffffffffffffff1681526020019081526020015f2081905550808060010191505061047a565b508160075f8881526020019081526020015f2081905550817fa87d18931b669b94d135986745ba30491257a77c255767cdd6796f697c1172f18760405161054f91906116d8565b60405180910390a2505050505050565b606060065f8381526020019081526020015f206003018054806020026020016040519081016040528092919081815260200182805480156105f257602002820191905f5260205f20905b815f9054906101000a900473ffffffffffffffffffffffffffffffffffffffff1673ffffffffffffffffffffffffffffffffffffffff16815260200190600101908083116105a9575b50505050509050919050565b60015f9054906101000a900473ffffffffffffffffffffffffffffffffffffffff1673ffffffffffffffffffffffffffffffffffffffff163373ffffffffffffffffffffffffffffffffffffffff161461068d576040517f08c379a00000000000000000000000000000000000000000000000000000000081526004016106849061193c565b60405180910390fd5b5f5f5f9054906101000a900473ffffffffffffffffffffffffffffffffffffffff169050335f5f6101000a81548173ffffffffffffffffffffffffffffffffffffffff021916908373ffffffffffffffffffffffffffffffffffffffff1602179055505f60015f6101000a81548173ffffffffffffffffffffffffffffffffffffffff021916908373ffffffffffffffffffffffffffffffffffffffff1602179055503373ffffffffffffffffffffffffffffffffffffffff168173ffffffffffffffffffffffffffffffffffffffff167f8be0079c531659141344cd1fd0a4f28419497f9722a3daafe3b4186f6b6457e060405160405180910390a350565b5f5f5f9054906101000a900473ffffffffffffffffffffffffffffffffffffffff16905090565b6107bc61078d565b73ffffffffffffffffffffffffffffffffffffffff163373ffffffffffffffffffffffffffffffffffffffff1614158015610844575060025f9054906101000a900473ffffffffffffffffffffffffffffffffffffffff1673ffffffffffffffffffffffffffffffffffffffff163373ffffffffffffffffffffffffffffffffffffffff1614155b156108b2573361085261078d565b60025f9054906101000a900473ffffffffffffffffffffffffffffffffffffffff166040517f061db9c10000000000000000000000000000000000000000000000000000000081526004016108a99392919061195a565b60405180910390fd5b5f73ffffffffffffffffffffffffffffffffffffffff168173ffffffffffffffffffffffffffffffffffffffff1603610917576040517fd92e233d00000000000000000000000000000000000000000000000000000000815260040160405180910390fd5b8060025f6101000a81548173ffffffffffffffffffffffffffffffffffffffff021916908373ffffffffffffffffffffffffffffffffffffffff1602179055507fd1a6a14209a385a964d036e404cb5cfb71f4000cdb03c9366292430787261be68160405161098691906115c2565b60405180910390a150565b610999610c16565b8060048190555050565b60025f9054906101000a900473ffffffffffffffffffffffffffffffffffffffff1681565b6109d0610c16565b8060038190555050565b6007602052805f5260405f205f915090505481565b6109f7610c16565b610a0081610ca6565b50565b5f60065f8581526020019081526020015f209050806004015f9054906101000a900460ff1615610a68576040517f08c379a0000000000000000000000000000000000000000000000000000000008152600401610a5f906119d9565b60405180910390fd5b5f5f90505b600381108015610a7f57508383905081105b15610b20575f610aa883868685818110610a9c57610a9b6118b5565b5b90506020020135610dd1565b90508260030181908060018154018082558091505060019003905f5260205f20015f9091909190916101000a81548173ffffffffffffffffffffffffffffffffffffffff021916908373ffffffffffffffffffffffffffffffffffffffff160217905550508080610b1890611a24565b915050610a6d565b506001816004015f6101000a81548160ff021916908315150217905550837f5fa006001f7473b386c7bb4db093cb973ce5c895e51c3813bdbd723097d0349e82600301604051610b709190611b4b565b60405180910390a250505050565b60607f92fd13387c7fe7befbc38d303d6468778fb9731bc4583f17d92989c6fcfdeaaa82604051602401610bb29190611b94565b604051602081830303815290604052907bffffffffffffffffffffffffffffffffffffffffffffffffffffffff19166020820180517bffffffffffffffffffffffffffffffffffffffffffffffffffffffff83818316178352505050509050919050565b5f5f9054906101000a900473ffffffffffffffffffffffffffffffffffffffff1673ffffffffffffffffffffffffffffffffffffffff163373ffffffffffffffffffffffffffffffffffffffff1614610ca4576040517f08c379a0000000000000000000000000000000000000000000000000000000008152600401610c9b90611bf7565b60405180910390fd5b565b3373ffffffffffffffffffffffffffffffffffffffff168173ffffffffffffffffffffffffffffffffffffffff1603610d14576040517f08c379a0000000000000000000000000000000000000000000000000000000008152600401610d0b90611c5f565b60405180910390fd5b8060015f6101000a81548173ffffffffffffffffffffffffffffffffffffffff021916908373ffffffffffffffffffffffffffffffffffffffff1602179055508073ffffffffffffffffffffffffffffffffffffffff165f5f9054906101000a900473ffffffffffffffffffffffffffffffffffffffff1673ffffffffffffffffffffffffffffffffffffffff167fed8889f560326eb138920d842192f0eb3dd22b4f139c87a2c57538e05bae127860405160405180910390a350565b5f5f5f90505f5f90505b8460010180549050811015610e8157846002015f866001018381548110610e0557610e046118b5565b5b905f5260205f20015f9054906101000a900473ffffffffffffffffffffffffffffffffffffffff1673ffffffffffffffffffffffffffffffffffffffff1673ffffffffffffffffffffffffffffffffffffffff1681526020019081526020015f205482610e729190611c7d565b91508080600101915050610ddb565b505f8184610e8f9190611cdd565b90505f5f90505f5f90505b8660010180549050811015610f9157866002015f886001018381548110610ec457610ec36118b5565b5b905f5260205f20015f9054906101000a900473ffffffffffffffffffffffffffffffffffffffff1673ffffffffffffffffffffffffffffffffffffffff1673ffffffffffffffffffffffffffffffffffffffff1681526020019081526020015f205482610f319190611c7d565b915081831015610f8457866001018181548110610f5157610f506118b5565b5b905f5260205f20015f9054906101000a900473ffffffffffffffffffffffffffffffffffffffff16945050505050610fcd565b8080600101915050610e9a565b506040517f08c379a0000000000000000000000000000000000000000000000000000000008152600401610fc490611d57565b60405180910390fd5b92915050565b828054828255905f5260205f20908101928215611049579160200282015b82811115611048578251825f6101000a81548173ffffffffffffffffffffffffffffffffffffffff021916908373ffffffffffffffffffffffffffffffffffffffff16021790555091602001919060010190610ff1565b5b509050611056919061105a565b5090565b5b80821115611071575f815f90555060010161105b565b5090565b5f604051905090565b5f5ffd5b5f5ffd5b5f819050919050565b61109881611086565b81146110a2575f5ffd5b50565b5f813590506110b38161108f565b92915050565b5f602082840312156110ce576110cd61107e565b5b5f6110db848285016110a5565b91505092915050565b6110ed81611086565b82525050565b5f8115159050919050565b611107816110f3565b82525050565b5f6040820190506111205f8301856110e4565b61112d60208301846110fe565b9392505050565b5f5ffd5b5f5ffd5b5f5ffd5b5f5f83601f84011261115557611154611134565b5b8235905067ffffffffffffffff81111561117257611171611138565b5b60208301915083602082028301111561118e5761118d61113c565b5b9250929050565b5f5f5f604084860312156111ac576111ab61107e565b5b5f6111b9868287016110a5565b935050602084013567ffffffffffffffff8111156111da576111d9611082565b5b6111e686828701611140565b92509250509250925092565b5f601f19601f8301169050919050565b7f4e487b71000000000000000000000000000000000000000000000000000000005f52604160045260245ffd5b611238826111f2565b810181811067ffffffffffffffff8211171561125757611256611202565b5b80604052505050565b5f611269611075565b9050611275828261122f565b919050565b5f67ffffffffffffffff82111561129457611293611202565b5b602082029050602081019050919050565b5f73ffffffffffffffffffffffffffffffffffffffff82169050919050565b5f6112ce826112a5565b9050919050565b6112de816112c4565b81146112e8575f5ffd5b50565b5f813590506112f9816112d5565b92915050565b5f61131161130c8461127a565b611260565b905080838252602082019050602084028301858111156113345761133361113c565b5b835b8181101561135d578061134988826112eb565b845260208401935050602081019050611336565b5050509392505050565b5f82601f83011261137b5761137a611134565b5b813561138b8482602086016112ff565b91505092915050565b5f67ffffffffffffffff8211156113ae576113ad611202565b5b602082029050602081019050919050565b5f6113d16113cc84611394565b611260565b905080838252602082019050602084028301858111156113f4576113f361113c565b5b835b8181101561141d578061140988826110a5565b8452602084019350506020810190506113f6565b5050509392505050565b5f82601f83011261143b5761143a611134565b5b813561144b8482602086016113bf565b91505092915050565b5f5f5f6060848603121561146b5761146a61107e565b5b5f611478868287016110a5565b935050602084013567ffffffffffffffff81111561149957611498611082565b5b6114a586828701611367565b925050604084013567ffffffffffffffff8111156114c6576114c5611082565b5b6114d286828701611427565b9150509250925092565b5f81519050919050565b5f82825260208201905092915050565b5f819050602082019050919050565b61150e816112c4565b82525050565b5f61151f8383611505565b60208301905092915050565b5f602082019050919050565b5f611541826114dc565b61154b81856114e6565b9350611556836114f6565b805f5b8381101561158657815161156d8882611514565b97506115788361152b565b925050600181019050611559565b5085935050505092915050565b5f6020820190508181035f8301526115ab8184611537565b905092915050565b6115bc816112c4565b82525050565b5f6020820190506115d55f8301846115b3565b92915050565b5f602082840312156115f0576115ef61107e565b5b5f6115fd848285016112eb565b91505092915050565b5f819050919050565b61161881611606565b8114611622575f5ffd5b50565b5f813590506116338161160f565b92915050565b5f6020828403121561164e5761164d61107e565b5b5f61165b84828501611625565b91505092915050565b5f819050919050565b5f61168761168261167d846112a5565b611664565b6112a5565b9050919050565b5f6116988261166d565b9050919050565b5f6116a98261168e565b9050919050565b6116b98161169f565b82525050565b5f6020820190506116d25f8301846116b0565b92915050565b5f6020820190506116eb5f8301846110e4565b92915050565b5f6040820190506117045f8301856115b3565b61171160208301846115b3565b9392505050565b61172181611606565b82525050565b61173081611086565b82525050565b5f61ffff82169050919050565b61174c81611736565b82525050565b5f63ffffffff82169050919050565b61176a81611752565b82525050565b5f81519050919050565b5f82825260208201905092915050565b8281835e5f83830152505050565b5f6117a282611770565b6117ac818561177a565b93506117bc81856020860161178a565b6117c5816111f2565b840191505092915050565b5f60c083015f8301516117e55f860182611718565b5060208301516117f86020860182611727565b50604083015161180b6040860182611743565b50606083015161181e6060860182611761565b5060808301516118316080860182611761565b5060a083015184820360a08601526118498282611798565b9150508091505092915050565b5f6020820190508181035f83015261186e81846117d0565b905092915050565b5f815190506118848161108f565b92915050565b5f6020828403121561189f5761189e61107e565b5b5f6118ac84828501611876565b91505092915050565b7f4e487b71000000000000000000000000000000000000000000000000000000005f52603260045260245ffd5b5f82825260208201905092915050565b7f4d7573742062652070726f706f736564206f776e6572000000000000000000005f82015250565b5f6119266016836118e2565b9150611931826118f2565b602082019050919050565b5f6020820190508181035f8301526119538161191a565b9050919050565b5f60608201905061196d5f8301866115b3565b61197a60208301856115b3565b61198760408301846115b3565b949350505050565b7f416c72656164792066756c66696c6c65640000000000000000000000000000005f82015250565b5f6119c36011836118e2565b91506119ce8261198f565b602082019050919050565b5f6020820190508181035f8301526119f0816119b7565b9050919050565b7f4e487b71000000000000000000000000000000000000000000000000000000005f52601160045260245ffd5b5f611a2e82611086565b91507fffffffffffffffffffffffffffffffffffffffffffffffffffffffffffffffff8203611a6057611a5f6119f7565b5b600182019050919050565b5f81549050919050565b5f819050815f5260205f209050919050565b5f815f1c9050919050565b5f73ffffffffffffffffffffffffffffffffffffffff82169050919050565b5f611ac3611abe83611a87565b611a92565b9050919050565b5f611ad58254611ab1565b9050919050565b5f600182019050919050565b5f611af282611a6b565b611afc81856114e6565b9350611b0783611a75565b805f5b83811015611b3e57611b1b82611aca565b611b258882611514565b9750611b3083611adc565b925050600181019050611b0a565b5085935050505092915050565b5f6020820190508181035f830152611b638184611ae8565b905092915050565b611b74816110f3565b82525050565b602082015f820151611b8e5f850182611b6b565b50505050565b5f602082019050611ba75f830184611b7a565b92915050565b7f4f6e6c792063616c6c61626c65206279206f776e6572000000000000000000005f82015250565b5f611be16016836118e2565b9150611bec82611bad565b602082019050919050565b5f6020820190508181035f830152611c0e81611bd5565b9050919050565b7f43616e6e6f74207472616e7366657220746f2073656c660000000000000000005f82015250565b5f611c496017836118e2565b9150611c5482611c15565b602082019050919050565b5f6020820190508181035f830152611c7681611c3d565b9050919050565b5f611c8782611086565b9150611c9283611086565b9250828201905080821115611caa57611ca96119f7565b5b92915050565b7f4e487b71000000000000000000000000000000000000000000000000000000005f52601260045260245ffd5b5f611ce782611086565b9150611cf283611086565b925082611d0257611d01611cb0565b5b828206905092915050565b7f57696e6e65722073656c656374696f6e206661696c65640000000000000000005f82015250565b5f611d416017836118e2565b9150611d4c82611d0d565b602082019050919050565b5f6020820190508181035f830152611d6e81611d35565b905091905056fea2646970667358221220b1fca9ece67fcbe6ff679dffe0fb82c82debb2348b31457d701e6caf22a655fd64736f6c634300081c0033","linkReferences":{}},"methodIdentifiers":{"acceptOwnership()":"79ba5097","campaignDraws(uint256)":"cc4abd14","draws(uint256)":"0cc36c36","getWinners(uint256)":"6b1426a4","owner()":"8da5cb5b","rawFulfillRandomWords(uint256,uint256[])":"1fe543e3","requestDraw(uint256,address[],uint256[])":"2b5eed43","s_vrfCoordinator()":"9eccacf6","setCoordinator(address)":"8ea98117","setKeyHash(bytes32)":"98544710","setSubscriptionId(uint256)":"c1e0d236","transferOwnership(address)":"f2fde38b"},"id":8}