{"abi":[{"type":"constructor","inputs":[],"stateMutability":"nonpayable"},{"type":"function","name":"anchor","inputs":[{"name":"submissionHash","type":"bytes32","internalType":"bytes32"}],"outputs":[],"stateMutability":"nonpayable"},{"type":"function","name":"anchored","inputs":[{"name":"","type":"bytes32","internalType":"bytes32"}],"outputs":[{"name":"","type":"bool","internalType":"bool"}],"stateMutability":"view"},{"type":"function","name":"verifier","inputs":[],"outputs":[{"name":"","type":"address","internalType":"address"}],"stateMutability":"view"},{"type":"event","name":"Anchored","inputs":[{"name":"submissionHash","type":"bytes32","indexed":true,"internalType":"bytes32"},{"name":"timestamp","type":"uint256","indexed":false,"internalType":"uint256"}],"anonymous":false}],"bytecode":{"object":"0x6080604052348015600e575f5ffd5b503360015f6101000a81548173ffffffffffffffffffffffffffffffffffffffff021916908373ffffffffffffffffffffffffffffffffffffffff1602179055506104718061005c5f395ff3fe608060405234801561000f575f5ffd5b506004361061003f575f3560e01c80632b7ac3f314610043578063dd64914614610061578063eecdf92714610091575b5f5ffd5b61004b6100ad565b604051610058919061027c565b60405180910390f35b61007b600480360381019061007691906102cc565b6100d2565b6040516100889190610311565b60405180910390f35b6100ab60048036038101906100a691906102cc565b6100ee565b005b60015f9054906101000a900473ffffffffffffffffffffffffffffffffffffffff1681565b5f602052805f5260405f205f915054906101000a900460ff1681565b60015f9054906101000a900473ffffffffffffffffffffffffffffffffffffffff1673ffffffffffffffffffffffffffffffffffffffff163373ffffffffffffffffffffffffffffffffffffffff161461017d576040517f08c379a000000000000000000000000000000000000000000000000000000000815260040161017490610384565b60405180910390fd5b5f5f8281526020019081526020015f205f9054906101000a900460ff16156101da576040517f08c379a00000000000000000000000000000000000000000000000000000000081526004016101d1906103ec565b60405180910390fd5b60015f5f8381526020019081526020015f205f6101000a81548160ff021916908315150217905550807ffde54488b5523b3abf19b99976dd0e2c531fbcd233d0eb682c96c3a18cf6b3c1426040516102329190610422565b60405180910390a250565b5f73ffffffffffffffffffffffffffffffffffffffff82169050919050565b5f6102668261023d565b9050919050565b6102768161025c565b82525050565b5f60208201905061028f5f83018461026d565b92915050565b5f5ffd5b5f819050919050565b6102ab81610299565b81146102b5575f5ffd5b50565b5f813590506102c6816102a2565b92915050565b5f602082840312156102e1576102e0610295565b5b5f6102ee848285016102b8565b91505092915050565b5f8115159050919050565b61030b816102f7565b82525050565b5f6020820190506103245f830184610302565b92915050565b5f82825260208201905092915050565b7f4f6e6c792076657269666965722063616e20616e63686f7200000000000000005f82015250565b5f61036e60188361032a565b91506103798261033a565b602082019050919050565b5f6020820190508181035f83015261039b81610362565b9050919050565b7f416c726561647920616e63686f726564000000000000000000000000000000005f82015250565b5f6103d660108361032a565b91506103e1826103a2565b602082019050919050565b5f6020820190508181035f830152610403816103ca565b9050919050565b5f819050919050565b61041c8161040a565b82525050565b5f6020820190506104355f830184610413565b9291505056fea264697066735822122012ce9d3a6b9fbffe969e5ac5a2bfbba117e2fde3de5a5b02e4aa0955df62f43f64736f6c634300081c0033","linkReferences":{}},"methodIdentifiers":{"anchor(bytes32)":"eecdf927","anchored(bytes32)":"dd649146","verifier()":"2b7ac3f3"},"id":0}