{"abi":[{"type":"constructor","inputs":[{"name":"_tickets","type":"address","internalType":"address"}],"stateMutability":"nonpayable"},{"type":"receive","stateMutability":"payable"},{"type":"function","name":"campaigns","inputs":[{"name":"","type":"uint256","internalType":"uint256"}],"outputs":[{"name":"prizeAmount","type":"uint256","internalType":"uint256"},{"name":"winChance","type":"uint256","internalType":"uint256"},{"name":"prizesRemaining","type":"uint256","internalType":"uint256"},{"name":"prizeType","type":"uint8","internalType":"enum PrizeDistributor.PrizeType"},{"name":"active","type":"bool","internalType":"bool"}],"stateMutability":"view"},{"type":"function","name":"fundCampaign","inputs":[{"name":"campaignId","type":"uint256","internalType":"uint256"}],"outputs":[],"stateMutability":"payable"},{"type":"function","name":"owner","inputs":[],"outputs":[{"name":"","type":"address","internalType":"address"}],"stateMutability":"view"},{"type":"function","name":"play","inputs":[{"name":"campaignId","type":"uint256","internalType":"uint256"}],"outputs":[],"stateMutability":"nonpayable"},{"type":"function","name":"setCampaignActive","inputs":[{"name":"campaignId","type":"uint256","internalType":"uint256"},{"name":"active","type":"bool","internalType":"bool"}],"outputs":[],"stateMutability":"nonpayable"},{"type":"function","name":"setupCampaign","inputs":[{"name":"campaignId","type":"uint256","internalType":"uint256"},{"name":"prizeAmount","type":"uint256","internalType":"uint256"},{"name":"winChance","type":"uint256","internalType":"uint256"},{"name":"initialPrizes","type":"uint256","internalType":"uint256"},{"name":"prizeType","type":"uint8","internalType":"enum PrizeDistributor.PrizeType"}],"outputs":[],"stateMutability":"nonpayable"},{"type":"function","name":"ticketsContract","inputs":[],"outputs":[{"name":"","type":"address","internalType":"contract ITickets"}],"stateMutability":"view"},{"type":"function","name":"withdraw","inputs":[{"name":"amount","type":"uint256","internalType":"uint256"}],"outputs":[],"stateMutability":"nonpayable"},{"type":"event","name":"DonationReceived","inputs":[{"name":"donator","type":"address","indexed":true,"internalType":"address"},{"name":"campaignId","type":"uint256","indexed":true,"internalType":"uint256"},{"name":"amount","type":"uint256","indexed":false,"internalType":"uint256"}],"anonymous":false},{"type":"event","name":"Lost","inputs":[{"name":"user","type":"address","indexed":true,"internalType":"address"},{"name":"campaignId","type":"uint256","indexed":false,"internalType":"uint256"}],"anonymous":false},{"type":"event","name":"Won","inputs":[{"name":"user","type":"address","indexed":true,"internalType":"address"},{"name":"campaignId","type":"uint256","indexed":false,"internalType":"uint256"},{"name":"amount","type":"uint256","indexed":false,"internalType":"uint256"},{"name":"prizeType","type":"uint8","indexed":false,"internalType":"enum PrizeDistributor.PrizeType"}],"anonymous":false}],"bytecode":{"object":"0x608060405234801561000f575f5ffd5b5060405161114038038061114083398181016040528101906100319190610114565b335f5f6101000a81548173ffffffffffffffffffffffffffffffffffffffff021916908373ffffffffffffffffffffffffffffffffffffffff1602179055508060015f6101000a81548173ffffffffffffffffffffffffffffffffffffffff021916908373ffffffffffffffffffffffffffffffffffffffff1602179055505061013f565b5f5ffd5b5f73ffffffffffffffffffffffffffffffffffffffff82169050919050565b5f6100e3826100ba565b9050919050565b6100f3816100d9565b81146100fd575f5ffd5b50565b5f8151905061010e816100ea565b92915050565b5f60208284031215610129576101286100b6565b5b5f61013684828501610100565b91505092915050565b610ff48061014c5f395ff3fe60806040526004361061007e575f3560e01c80636898f82b1161004d5780636898f82b146101435780638da5cb5b1461016b57806392bd38bc14610195578063ad11728b146101b157610085565b8063141961bc146100895780632e1a7d4d146100c95780633dfb72a9146100f1578063526cee8d1461011957610085565b3661008557005b5f5ffd5b348015610094575f5ffd5b506100af60048036038101906100aa919061091a565b6101d9565b6040516100c09594939291906109e1565b60405180910390f35b3480156100d4575f5ffd5b506100ef60048036038101906100ea919061091a565b610224565b005b3480156100fc575f5ffd5b5061011760048036038101906101129190610a55565b610319565b005b348015610124575f5ffd5b5061012d610469565b60405161013a9190610b46565b60405180910390f35b34801561014e575f5ffd5b506101696004803603810190610164919061091a565b61048e565b005b348015610176575f5ffd5b5061017f61076d565b60405161018c9190610b7f565b60405180910390f35b6101af60048036038101906101aa919061091a565b610791565b005b3480156101bc575f5ffd5b506101d760048036038101906101d29190610bc2565b610825565b005b6002602052805f5260405f205f91509050805f015490806001015490806002015490806003015f9054906101000a900460ff16908060030160019054906101000a900460ff16905085565b5f5f9054906101000a900473ffffffffffffffffffffffffffffffffffffffff1673ffffffffffffffffffffffffffffffffffffffff163373ffffffffffffffffffffffffffffffffffffffff16146102b2576040517f08c379a00000000000000000000000000000000000000000000000000000000081526004016102a990610c5a565b60405180910390fd5b5f5f9054906101000a900473ffffffffffffffffffffffffffffffffffffffff1673ffffffffffffffffffffffffffffffffffffffff166108fc8290811502906040515f60405180830381858888f19350505050158015610315573d5f5f3e3d5ffd5b5050565b5f5f9054906101000a900473ffffffffffffffffffffffffffffffffffffffff1673ffffffffffffffffffffffffffffffffffffffff163373ffffffffffffffffffffffffffffffffffffffff16146103a7576040517f08c379a000000000000000000000000000000000000000000000000000000000815260040161039e90610c5a565b60405180910390fd5b6040518060a001604052808581526020018481526020018381526020018260018111156103d7576103d6610954565b5b81526020016001151581525060025f8781526020019081526020015f205f820151815f015560208201518160010155604082015181600201556060820151816003015f6101000a81548160ff0219169083600181111561043a57610439610954565b5b021790555060808201518160030160016101000a81548160ff0219169083151502179055509050505050505050565b60015f9054906101000a900473ffffffffffffffffffffffffffffffffffffffff1681565b5f60025f8381526020019081526020015f2090508060030160019054906101000a900460ff166104f3576040517f08c379a00000000000000000000000000000000000000000000000000000000081526004016104ea90610cc2565b60405180910390fd5b5f816002015411610539576040517f08c379a000000000000000000000000000000000000000000000000000000000815260040161053090610d2a565b60405180910390fd5b60015f9054906101000a900473ffffffffffffffffffffffffffffffffffffffff1673ffffffffffffffffffffffffffffffffffffffff1663dffe1b04338460016040518463ffffffff1660e01b815260040161059893929190610d81565b5f604051808303815f87803b1580156105af575f5ffd5b505af11580156105c1573d5f5f3e3d5ffd5b505050505f4442336040516020016105db93929190610e1b565b604051602081830303815290604052805190602001205f1c90505f612710826106049190610e84565b9050826001015481101561071857826002015f81548092919061062690610ee1565b91905055505f600181111561063e5761063d610954565b5b836003015f9054906101000a900460ff16600181111561066157610660610954565b5b036106ae573373ffffffffffffffffffffffffffffffffffffffff166108fc845f015490811502906040515f60405180830381858888f193505050501580156106ac573d5f5f3e3d5ffd5b505b3373ffffffffffffffffffffffffffffffffffffffff167f196980b13ab79b2ff5c3eacd8fb9abd6b9ff8b82acf2aafabec3c3af5e46221485855f0154866003015f9054906101000a900460ff1660405161070b93929190610f08565b60405180910390a2610767565b3373ffffffffffffffffffffffffffffffffffffffff167f27c6d7467a9e62ceb584220b29b58a8352f8ca8f743e359e55d7a05bc06d11438560405161075e9190610f3d565b60405180910390a25b50505050565b5f5f9054906101000a900473ffffffffffffffffffffffffffffffffffffffff1681565b5f34116107d3576040517f08c379a00000000000000000000000000000000000000000000000000000000081526004016107ca90610fa0565b60405180910390fd5b803373ffffffffffffffffffffffffffffffffffffffff167f4b0304ab2f313234b1cea012339c8f8c3bf2c8bb357d81a579cfdb35d2e3d0303460405161081a9190610f3d565b60405180910390a350565b5f5f9054906101000a900473ffffffffffffffffffffffffffffffffffffffff1673ffffffffffffffffffffffffffffffffffffffff163373ffffffffffffffffffffffffffffffffffffffff16146108b3576040517f08c379a00000000000000000000000000000000000000000000000000000000081526004016108aa90610c5a565b60405180910390fd5b8060025f8481526020019081526020015f2060030160016101000a81548160ff0219169083151502179055505050565b5f5ffd5b5f819050919050565b6108f9816108e7565b8114610903575f5ffd5b50565b5f81359050610914816108f0565b92915050565b5f6020828403121561092f5761092e6108e3565b5b5f61093c84828501610906565b91505092915050565b61094e816108e7565b82525050565b7f4e487b71000000000000000000000000000000000000000000000000000000005f52602160045260245ffd5b6002811061099257610991610954565b5b50565b5f8190506109a282610981565b919050565b5f6109b182610995565b9050919050565b6109c1816109a7565b82525050565b5f8115159050919050565b6109db816109c7565b82525050565b5f60a0820190506109f45f830188610945565b610a016020830187610945565b610a0e6040830186610945565b610a1b60608301856109b8565b610a2860808301846109d2565b9695505050505050565b60028110610a3e575f5ffd5b50565b5f81359050610a4f81610a32565b92915050565b5f5f5f5f5f60a08688031215610a6e57610a6d6108e3565b5b5f610a7b88828901610906565b9550506020610a8c88828901610906565b9450506040610a9d88828901610906565b9350506060610aae88828901610906565b9250506080610abf88828901610a41565b9150509295509295909350565b5f73ffffffffffffffffffffffffffffffffffffffff82169050919050565b5f819050919050565b5f610b0e610b09610b0484610acc565b610aeb565b610acc565b9050919050565b5f610b1f82610af4565b9050919050565b5f610b3082610b15565b9050919050565b610b4081610b26565b82525050565b5f602082019050610b595f830184610b37565b92915050565b5f610b6982610acc565b9050919050565b610b7981610b5f565b82525050565b5f602082019050610b925f830184610b70565b92915050565b610ba1816109c7565b8114610bab575f5ffd5b50565b5f81359050610bbc81610b98565b92915050565b5f5f60408385031215610bd857610bd76108e3565b5b5f610be585828601610906565b9250506020610bf685828601610bae565b9150509250929050565b5f82825260208201905092915050565b7f4f6e6c79206f776e6572000000000000000000000000000000000000000000005f82015250565b5f610c44600a83610c00565b9150610c4f82610c10565b602082019050919050565b5f6020820190508181035f830152610c7181610c38565b9050919050565b7f43616d706169676e206e6f7420616374697665000000000000000000000000005f82015250565b5f610cac601383610c00565b9150610cb782610c78565b602082019050919050565b5f6020820190508181035f830152610cd981610ca0565b9050919050565b7f4e6f207072697a6573206c6566740000000000000000000000000000000000005f82015250565b5f610d14600e83610c00565b9150610d1f82610ce0565b602082019050919050565b5f6020820190508181035f830152610d4181610d08565b9050919050565b5f819050919050565b5f610d6b610d66610d6184610d48565b610aeb565b6108e7565b9050919050565b610d7b81610d51565b82525050565b5f606082019050610d945f830186610b70565b610da16020830185610945565b610dae6040830184610d72565b949350505050565b5f819050919050565b610dd0610dcb826108e7565b610db6565b82525050565b5f8160601b9050919050565b5f610dec82610dd6565b9050919050565b5f610dfd82610de2565b9050919050565b610e15610e1082610b5f565b610df3565b82525050565b5f610e268286610dbf565b602082019150610e368285610dbf565b602082019150610e468284610e04565b601482019150819050949350505050565b7f4e487b71000000000000000000000000000000000000000000000000000000005f52601260045260245ffd5b5f610e8e826108e7565b9150610e99836108e7565b925082610ea957610ea8610e57565b5b828206905092915050565b7f4e487b71000000000000000000000000000000000000000000000000000000005f52601160045260245ffd5b5f610eeb826108e7565b91505f8203610efd57610efc610eb4565b5b600182039050919050565b5f606082019050610f1b5f830186610945565b610f286020830185610945565b610f3560408301846109b8565b949350505050565b5f602082019050610f505f830184610945565b92915050565b7f4d7573742073656e642066756e647300000000000000000000000000000000005f82015250565b5f610f8a600f83610c00565b9150610f9582610f56565b602082019050919050565b5f6020820190508181035f830152610fb781610f7e565b905091905056fea2646970667358221220867601a9d6e38b3fc9c039c71e552734636abd5066b23178dc880f2be8c6fbd264736f6c634300081c0033","linkReferences":{}},"methodIdentifiers":{"campaigns(uint256)":"141961bc","fundCampaign(uint256)":"92bd38bc","owner()":"8da5cb5b","play(uint256)":"6898f82b","setCampaignActive(uint256,bool)":"ad11728b","setupCampaign(uint256,uint256,uint256,uint256,uint8)":"3dfb72a9","ticketsContract()":"526cee8d","withdraw(uint256)":"2e1a7d4d"},"id":0}