{"abi":[{"type":"constructor","inputs":[],"stateMutability":"nonpayable"},{"type":"function","name":"balanceOf","inputs":[{"name":"user","type":"address","internalType":"address"},{"name":"campaignId","type":"uint256","internalType":"uint256"}],"outputs":[{"name":"","type":"uint256","internalType":"uint256"}],"stateMutability":"view"},{"type":"function","name":"balances","inputs":[{"name":"","type":"uint256","internalType":"uint256"},{"name":"","type":"address","internalType":"address"}],"outputs":[{"name":"","type":"uint256","internalType":"uint256"}],"stateMutability":"view"},{"type":"function","name":"lastClaimDay","inputs":[{"name":"","type":"uint256","internalType":"uint256"},{"name":"","type":"address","internalType":"address"}],"outputs":[{"name":"","type":"uint256","internalType":"uint256"}],"stateMutability":"view"},{"type":"function","name":"mint","inputs":[{"name":"user","type":"address","internalType":"address"},{"name":"campaignId","type":"uint256","internalType":"uint256"},{"name":"amount","type":"uint256","internalType":"uint256"},{"name":"submissionHash","type":"bytes32","internalType":"bytes32"}],"outputs":[],"stateMutability":"nonpayable"},{"type":"function","name":"mintReward","inputs":[{"name":"user","type":"address","internalType":"address"},{"name":"campaignId","type":"uint256","internalType":"uint256"},{"name":"amount","type":"uint256","internalType":"uint256"},{"name":"rewardHash","type":"bytes32","internalType":"bytes32"}],"outputs":[],"stateMutability":"nonpayable"},{"type":"function","name":"prizeDistributor","inputs":[],"outputs":[{"name":"","type":"address","internalType":"address"}],"stateMutability":"view"},{"type":"function","name":"setPrizeDistributor","inputs":[{"name":"_distributor","type":"address","internalType":"address"}],"outputs":[],"stateMutability":"nonpayable"},{"type":"function","name":"setVerifier","inputs":[{"name":"_verifier","type":"address","internalType":"address"}],"outputs":[],"stateMutability":"nonpayable"},{"type":"function","name":"spend","inputs":[{"name":"user","type":"address","internalType":"address"},{"name":"campaignId","type":"uint256","internalType":"uint256"},{"name":"amount","type":"uint256","internalType":"uint256"}],"outputs":[],"stateMutability":"nonpayable"},{"type":"function","name":"verifier","inputs":[],"outputs":[{"name":"","type":"address","internalType":"address"}],"stateMutability":"view"},{"type":"event","name":"TicketsMinted","inputs":[{"name":"user","type":"address","indexed":true,"internalType":"address"},{"name":"campaignId","type":"uint256","indexed":true,"internalType":"uint256"},{"name":"amount","type":"uint256","indexed":false,"internalType":"uint256"},{"name":"submissionHash","type":"bytes32","indexed":false,"internalType":"bytes32"}],"anonymous":false},{"type":"event","name":"TicketsSpent","inputs":[{"name":"user","type":"address","indexed":true,"internalType":"address"},{"name":"campaignId","type":"uint256","indexed":true,"internalType":"uint256"},{"name":"amount","type":"uint256","indexed":false,"internalType":"uint256"}],"anonymous":false}],"bytecode":{"object":"0x6080604052348015600e575f5ffd5b503360025f6101000a81548173ffffffffffffffffffffffffffffffffffffffff021916908373ffffffffffffffffffffffffffffffffffffffff1602179055506110888061005c5f395ff3fe608060405234801561000f575f5ffd5b506004361061009b575f3560e01c80635437988d116100645780635437988d14610169578063d00d23e314610185578063dffe1b04146101a3578063e1ce80a0146101bf578063ffd4397e146101db5761009b565b8062fdd58e1461009f5780631677d468146100cf5780631f320331146100eb5780632b7ac3f31461011b5780632c94cca914610139575b5f5ffd5b6100b960048036038101906100b49190610a5c565b6101f7565b6040516100c69190610aa9565b60405180910390f35b6100e960048036038101906100e49190610ac2565b61024c565b005b61010560048036038101906101009190610aed565b61031e565b6040516101129190610aa9565b60405180910390f35b61012361033d565b6040516101309190610b3a565b60405180910390f35b610153600480360381019061014e9190610aed565b610362565b6040516101609190610aa9565b60405180910390f35b610183600480360381019061017e9190610ac2565b610382565b005b61018d610454565b60405161019a9190610b3a565b60405180910390f35b6101bd60048036038101906101b89190610b53565b610479565b005b6101d960048036038101906101d49190610bd6565b61064b565b005b6101f560048036038101906101f09190610bd6565b610792565b005b5f5f5f8381526020019081526020015f205f8473ffffffffffffffffffffffffffffffffffffffff1673ffffffffffffffffffffffffffffffffffffffff1681526020019081526020015f2054905092915050565b60025f9054906101000a900473ffffffffffffffffffffffffffffffffffffffff1673ffffffffffffffffffffffffffffffffffffffff163373ffffffffffffffffffffffffffffffffffffffff16146102db576040517f08c379a00000000000000000000000000000000000000000000000000000000081526004016102d290610cba565b60405180910390fd5b8060035f6101000a81548173ffffffffffffffffffffffffffffffffffffffff021916908373ffffffffffffffffffffffffffffffffffffffff16021790555050565b5f602052815f5260405f20602052805f5260405f205f91509150505481565b60025f9054906101000a900473ffffffffffffffffffffffffffffffffffffffff1681565b6001602052815f5260405f20602052805f5260405f205f91509150505481565b60025f9054906101000a900473ffffffffffffffffffffffffffffffffffffffff1673ffffffffffffffffffffffffffffffffffffffff163373ffffffffffffffffffffffffffffffffffffffff1614610411576040517f08c379a000000000000000000000000000000000000000000000000000000000815260040161040890610d48565b60405180910390fd5b8060025f6101000a81548173ffffffffffffffffffffffffffffffffffffffff021916908373ffffffffffffffffffffffffffffffffffffffff16021790555050565b60035f9054906101000a900473ffffffffffffffffffffffffffffffffffffffff1681565b60035f9054906101000a900473ffffffffffffffffffffffffffffffffffffffff1673ffffffffffffffffffffffffffffffffffffffff163373ffffffffffffffffffffffffffffffffffffffff1614610508576040517f08c379a00000000000000000000000000000000000000000000000000000000081526004016104ff90610db0565b60405180910390fd5b805f5f8481526020019081526020015f205f8573ffffffffffffffffffffffffffffffffffffffff1673ffffffffffffffffffffffffffffffffffffffff1681526020019081526020015f20541015610596576040517f08c379a000000000000000000000000000000000000000000000000000000000815260040161058d90610e18565b60405180910390fd5b805f5f8481526020019081526020015f205f8573ffffffffffffffffffffffffffffffffffffffff1673ffffffffffffffffffffffffffffffffffffffff1681526020019081526020015f205f8282546105f09190610e63565b92505081905550818373ffffffffffffffffffffffffffffffffffffffff167fb0f65f6f369ce8382fce48d32bd4469894262c2c1aa5f583b0d8ad8b9b76821a8360405161063e9190610aa9565b60405180910390a3505050565b60025f9054906101000a900473ffffffffffffffffffffffffffffffffffffffff1673ffffffffffffffffffffffffffffffffffffffff163373ffffffffffffffffffffffffffffffffffffffff16146106da576040517f08c379a00000000000000000000000000000000000000000000000000000000081526004016106d190610ee0565b60405180910390fd5b815f5f8581526020019081526020015f205f8673ffffffffffffffffffffffffffffffffffffffff1673ffffffffffffffffffffffffffffffffffffffff1681526020019081526020015f205f8282546107349190610efe565b92505081905550828473ffffffffffffffffffffffffffffffffffffffff167f9156a5fb03eebbfa0f97e225898757ff7b777c6f39b7fcf9b230d5e9d3047f1c8484604051610784929190610f40565b60405180910390a350505050565b60025f9054906101000a900473ffffffffffffffffffffffffffffffffffffffff1673ffffffffffffffffffffffffffffffffffffffff163373ffffffffffffffffffffffffffffffffffffffff1614610821576040517f08c379a000000000000000000000000000000000000000000000000000000000815260040161081890610ee0565b60405180910390fd5b5f62015180426108319190610f94565b90508060015f8681526020019081526020015f205f8773ffffffffffffffffffffffffffffffffffffffff1673ffffffffffffffffffffffffffffffffffffffff1681526020019081526020015f2054106108c1576040517f08c379a00000000000000000000000000000000000000000000000000000000081526004016108b890611034565b60405180910390fd5b825f5f8681526020019081526020015f205f8773ffffffffffffffffffffffffffffffffffffffff1673ffffffffffffffffffffffffffffffffffffffff1681526020019081526020015f205f82825461091b9190610efe565b925050819055508060015f8681526020019081526020015f205f8773ffffffffffffffffffffffffffffffffffffffff1673ffffffffffffffffffffffffffffffffffffffff1681526020019081526020015f2081905550838573ffffffffffffffffffffffffffffffffffffffff167f9156a5fb03eebbfa0f97e225898757ff7b777c6f39b7fcf9b230d5e9d3047f1c85856040516109bc929190610f40565b60405180910390a35050505050565b5f5ffd5b5f73ffffffffffffffffffffffffffffffffffffffff82169050919050565b5f6109f8826109cf565b9050919050565b610a08816109ee565b8114610a12575f5ffd5b50565b5f81359050610a23816109ff565b92915050565b5f819050919050565b610a3b81610a29565b8114610a45575f5ffd5b50565b5f81359050610a5681610a32565b92915050565b5f5f60408385031215610a7257610a716109cb565b5b5f610a7f85828601610a15565b9250506020610a9085828601610a48565b9150509250929050565b610aa381610a29565b82525050565b5f602082019050610abc5f830184610a9a565b92915050565b5f60208284031215610ad757610ad66109cb565b5b5f610ae484828501610a15565b91505092915050565b5f5f60408385031215610b0357610b026109cb565b5b5f610b1085828601610a48565b9250506020610b2185828601610a15565b9150509250929050565b610b34816109ee565b82525050565b5f602082019050610b4d5f830184610b2b565b92915050565b5f5f5f60608486031215610b6a57610b696109cb565b5b5f610b7786828701610a15565b9350506020610b8886828701610a48565b9250506040610b9986828701610a48565b9150509250925092565b5f819050919050565b610bb581610ba3565b8114610bbf575f5ffd5b50565b5f81359050610bd081610bac565b92915050565b5f5f5f5f60808587031215610bee57610bed6109cb565b5b5f610bfb87828801610a15565b9450506020610c0c87828801610a48565b9350506040610c1d87828801610a48565b9250506060610c2e87828801610bc2565b91505092959194509250565b5f82825260208201905092915050565b7f4f6e6c792076657269666965722063616e206368616e676520646973747269625f8201527f75746f7200000000000000000000000000000000000000000000000000000000602082015250565b5f610ca4602483610c3a565b9150610caf82610c4a565b604082019050919050565b5f6020820190508181035f830152610cd181610c98565b9050919050565b7f4f6e6c792076657269666965722063616e206368616e676520766572696669655f8201527f7200000000000000000000000000000000000000000000000000000000000000602082015250565b5f610d32602183610c3a565b9150610d3d82610cd8565b604082019050919050565b5f6020820190508181035f830152610d5f81610d26565b9050919050565b7f4f6e6c79206469737472696275746f722063616e207370656e640000000000005f82015250565b5f610d9a601a83610c3a565b9150610da582610d66565b602082019050919050565b5f6020820190508181035f830152610dc781610d8e565b9050919050565b7f496e73756666696369656e74207469636b6574730000000000000000000000005f82015250565b5f610e02601483610c3a565b9150610e0d82610dce565b602082019050919050565b5f6020820190508181035f830152610e2f81610df6565b9050919050565b7f4e487b71000000000000000000000000000000000000000000000000000000005f52601160045260245ffd5b5f610e6d82610a29565b9150610e7883610a29565b9250828203905081811115610e9057610e8f610e36565b5b92915050565b7f4f6e6c792076657269666965722063616e206d696e74000000000000000000005f82015250565b5f610eca601683610c3a565b9150610ed582610e96565b602082019050919050565b5f6020820190508181035f830152610ef781610ebe565b9050919050565b5f610f0882610a29565b9150610f1383610a29565b9250828201905080821115610f2b57610f2a610e36565b5b92915050565b610f3a81610ba3565b82525050565b5f604082019050610f535f830185610a9a565b610f606020830184610f31565b9392505050565b7f4e487b71000000000000000000000000000000000000000000000000000000005f52601260045260245ffd5b5f610f9e82610a29565b9150610fa983610a29565b925082610fb957610fb8610f67565b5b828204905092915050565b7f5573657220616c726561647920636c61696d6564207469636b657420746f64615f8201527f7920666f7220746869732063616d706169676e00000000000000000000000000602082015250565b5f61101e603383610c3a565b915061102982610fc4565b604082019050919050565b5f6020820190508181035f83015261104b81611012565b905091905056fea26469706673582212203ce673b1c98e19b58d6c7188f7bc688d1b721827986687fd4349c36e062ffce964736f6c634300081c0033","linkReferences":{}},"methodIdentifiers":{"balanceOf(address,uint256)":"00fdd58e","balances(uint256,address)":"1f320331","lastClaimDay(uint256,address)":"2c94cca9","mint(address,uint256,uint256,bytes32)":"ffd4397e","mintReward(address,uint256,uint256,bytes32)":"e1ce80a0","prizeDistributor()":"d00d23e3","setPrizeDistributor(address)":"1677d468","setVerifier(address)":"5437988d","spend(address,uint256,uint256)":"dffe1b04","verifier()":"2b7ac3f3"},"id":1}